:020000040800F2
:10000000E80B0020C5010008C9010008CB01000869
:10001000CD010008CF010008D10100080000000058
:10002000000000000000000000000000D3010008F4
:10003000D501000800000000D7010008D901000820
:10004000DB010008DB010008DB010008DB01000820
:10005000DB010008DB010008DB010008DB01000810
:10006000DB010008DB010008DB010008DB01000800
:10007000DB010008DB010008DB010008DB010008F0
:10008000DB010008DB010008DB010008DB010008E0
:10009000DB010008DB010008DB010008D9150008BE
:1000A000DB010008531A0008DB010008DB0100082F
:1000B00065150008DB0100084D150008DB0100088C
:1000C000DB010008DB010008DB010008DB010008A0
:1000D000DB0100085B070008DB010008DB0100080A
:1000E00033160008DB010008DB01000800F002F80D
:1000F00000F053F80AA090E8000C82448344AAF16F
:100100000107DA4501D100F048F8AFF2090EBAE86C
:100110000F0013F0010F18BFFB1A43F0010318473B
:10012000A0570000C0570000103A24BF78C878C11B
:10013000FAD8520724BF30C830C144BF04680C60ED
:10014000704700000023002400250026103A28BF35
:1001500078C1FBD8520728BF30C148BF0B60704739
:10016000662904F0B085642901F05085732902F0F6
:10017000A480002070471FB502F04AF90400002057
:10018000002103F0F5FC401C60600020002103F01A
:10019000D9FCE0601FBD10B510BD02F0C3FA1146D6
:1001A000FFF7E9FF00F02AF802F042FD03B4FFF781
:1001B000F2FF03BC00F00EFA30BF72B662B680F3F5
:1001C0000888704708480047FEE7FEE7FEE7FEE7BD
:1001D000FEE7FEE7FEE7FEE7FEE7FEE70348044929
:1001E000044A054B70470000ED000008E8050020B8
:1001F000E80B0020E8070020E8070020092000F0B5
:1002000090F9482000F030F8022000F075F9012044
:1002100000F072F94FF47A7000F05EF84FF47A70E3
:1002200000F05AF800F070FB01F0B2F900F0C1FDE7
:100230004FF4FA31482000F0E7F9002141F61F4061
:1002400001F03CF801F0F0F800F03EFF00F060FE35
:1002500041F61F414F2000F0F1FF02E0012001496B
:100260000870FBE7020000204FF0E021096921F04F
:1002700004014FF0E0221161C21700EB5272C2F389
:10028000C702234B1A701946097801EB4102C2EBF1
:10029000C1114FF6FF7202EAC1011E4A1180704778
:1002A00001461B4A12784A434FF0E0235A6100226C
:1002B0009A6101221A6100BF4FF0E022106900F03C
:1002C00001021AB100F48032002AF5D000224FF06A
:1002D000E0231A619A61704701460E4A12884A4328
:1002E0004FF0E0235A6100229A6101221A6100BF97
:1002F0004FF0E022106900F001021AB100F48032E0
:10030000002AF5D000224FF0E0231A619A6170476D
:100310005400002056000020A34A0A400243A34B89
:100320001A6070470146072323EA010212029F4B1D
:100330001B1D18684FF6FF0318409D4B18431043D0
:100340009A4B1B1D186070472DE9F04107468846FF
:1003500014461D462846FFF7E5FFC5F1040007FADD
:1003600000F60F20284100EA0800064306F00F06B9
:10037000E21704EBD2625211920002F1E022D2F8AD
:1003800000212146E31704EBD3635B11A4EB431C6C
:10039000012303FA0CF31A432046E31704EBD3635B
:1003A0005B119B0003F1E023C3F800218148005D4D
:1003B00040EA06107F490855BDE8F08170B5044653
:1003C0000B46CE1701EB9676C6F38700CE1701EBEE
:1003D0009676B610A1EB8606B606350E764B9B696F
:1003E00043F00103744EB3614FEAB63353F8203043
:1003F0000F26AE40B343714E46F82030334653F8D3
:10040000203004FA05F61E436C4B43F820606C4B19
:100410001B6801268E403343694E336002F00103AE
:1004200043B1674B0C331B6801268E403343644E47
:100430000C36336002F0020343B1614B08331E688F
:1004400001238B401E435E4B08331E6070BD00B518
:10045000002059490861C860142048610020886163
:10046000C8610846006840F001000860084640681E
:1004700054490840504948600846006852490840BD
:100480004D4908600846006820F48020086008464E
:10049000406820F4FE0048600020886000214FF092
:1004A0000060FFF739FF00BD10B540480830006814
:1004B00040F004003D49083108603F48C06940F001
:1004C00080503D49C8614148406840F480703F49D0
:1004D00048600846006840F004000860084600686C
:1004E00040F002000860FFF767FE10BD3048001DB5
:1004F0002E49091D08607047014649062E4A926937
:1005000042F001022C4B9A612C4A083A526822F0C0
:10051000E0622A4B083B5A601A4652680A435A6006
:10052000704730B504460025FFF791FF2248006868
:1005300040F480302049086000BF1F480068400C2C
:100540000028FAD04FF480601B494860A01EC4B256
:100550000846406840EA844048600846406840F4E5
:10056000803048601A48006840F03200184908603E
:100570001148006840F080700F49086000BF0E48C5
:100580000068400E0028FAD00B48406840F0020096
:100590000949486005E008484068C0F3870505F050
:1005A0000305022DF7D130BD80FFFF1F08ED00E0ED
:1005B0000000FA0500E400E00010024008000140DD
:1005C000000401400000FFF8FFFFF6FE007000404D
:1005D00000200240014600BF704700BFAE4A1288AB
:1005E00002F04002002AF9D0C2B2AB4B1B1D1A80A8
:1005F0007047A949091D088000BFA749098801F073
:1006000040010029F9D070472DE9F05F05460E46FC
:10061000300104F0C5F98146A04905FB01F004F062
:10062000BFF98246494604F071F80746384604F09F
:100630007FF984B2204604F0B3F98346394604F0CA
:10064000C3FA82464FF0834104F0F2F9814604F088
:100650006FF980464FF6FF7000EA041404EB0800BF
:1006600084B28F48806940F004008D498861084653
:10067000806940F4804088618A48006820F47F6087
:10068000884908600846006840F40B6008608448A8
:10069000C06840F480408249C8600846C06820F4C1
:1006A0008040C8607C4808300480001D008842F209
:1006B0000C01084378490C3108800846008840F452
:1006C000807008800846008840F0200008800223DF
:1006D000252201210020FFF737FEBDE8F09F1CB561
:1006E0007148008800F4004080B36F4800786F497B
:1006F000087000206E49087018E06E486C4909784F
:10070000405C6B4A12780DF8020000206949684A83
:100710001278885400BF6048008800F0400000282C
:10072000F9D063480078401C61490870604800783F
:100730005E4909788842E0DB684601F028FB044600
:100740005D48046000205849088005E0FFE75B48E9
:100750000088401C594908801CBD10B54E480088CF
:1007600000F0200020B34C48001D0088C4B24E4861
:10077000008800F40040D8B94B48008800F480405D
:1007800070B10A2C03D000204749088022E0464877
:10079000008840F4004044490880FFF7A0FF19E0BA
:1007A0000D2C06D14048008840F480403E49088026
:1007B00010E03D480088C0F30D003E490C543A4813
:1007C0000088401C3849088008460088C72801DD99
:1007D0000020088010BD7CB53348008800F400403C
:1007E000002841D030480078304908700846017828
:1007F00033A001F0D5F900202D49087013E02D48F1
:100800002B490978405C2A4A12780DF8020000BF93
:100810002148008800F040000028F9D024480078E2
:10082000401C2349087022480078204909788842F2
:10083000E5DB694626A001F0B3F9684603F000F94C
:10084000054603F0ABF90446204603F0C5FE054615
:100850002A460B4620A001F0A3F921A001F0A0F93F
:1008600000201149088004E014480088401C134906
:1008700008807CBD0EB51C4840691B4909691A4AAD
:10088000D268CDE900210290174883684268016868
:1008900016A001F085F90EBD0038014040420F005E
:1008A00000100240040801406000002059000020B0
:1008B00058000020BC000020480000205A00002002
:1008C0006C656E6774682069733A2025640D0A00B0
:1008D00025730D0A00000000252E32660D0A000067
:1008E0000D0A0D0A00000000A400002025642C2041
:1008F00025642C2025642C2025642C2025642C20A4
:1009000025640D0A000000001748806940F00400CB
:10091000154988611548006820F470201349086063
:100920000846006840F44030086010480C30006809
:1009300040F010000D490C310860704718B90021D3
:100940000B4A11600FE00B490968491C094A116004
:10095000814208D106490968C943074AC2F8901183
:100960000021044A11607047001002400008014055
:100970009001214264000020000021424948806922
:1009800040F00400474988614748006820F47F2010
:10099000454908600846006840F408200860081FC0
:1009A0000068424908404049091F0860084600683D
:1009B0003F4908433C49091F08603B48083000682C
:1009C00040F004003849083108600846006840F0EB
:1009D000800008600846006840F020000860084673
:1009E000006840F4C0500860704701463148006814
:1009F00028B931480088401C2F4A108002E00020AE
:100A00002D4A10802B48006828B92C48007810B96E
:100A100001202A4A10702A480078B0B92748007887
:100A2000012807D127480078401C264A1070012071
:100A3000234A107023480078022806D10020214A5A
:100A40001070214A1080022070471A48006801285F
:100A500004D10020194A1070194A10701948007802
:100A600001281CD118480088401C174A10801046E5
:100A7000008888420ADD10480088884206DA002093
:100A8000104A1070104A10800120DDE70A480088E3
:100A9000884204DD00200B4A10700B4A10800020B1
:100AA000D2E700000010024004080140FFF00F0FE1
:100AB00000088080080121426E00002068000020AC
:100AC000690000206A0000206C00002010B50A4672
:100AD0001AB10123FE4C236002E00023FC4C23608A
:100AE000002114E00023FB4C236000F080031BB1C5
:100AF0000123241F236003E00023F64C241F2360FE
:100B00000123F44C23604306180E4B1CD9B208296C
:100B1000E8DB0123EE4C236010BD30B500241CE05F
:100B200004F1B001C8B20021FFF7D0FF0021084650
:100B3000FFF7CCFF00211020FFF7C8FF002508E0D9
:100B4000E54901EBC501085D0121FFF7BFFF681C06
:100B5000C5B2802DF4DB601CC4B2082CE0DB30BDD4
:100B600000B500218D20FFF7B1FF00211420FFF711
:100B7000ADFF0021AF20FFF7A9FF00BD00B50021A8
:100B80008D20FFF7A3FF00211020FFF79FFF00211A
:100B9000AE20FFF79BFF00BD30B500240CE0002520
:100BA00006E00020CC4901EBC5010855681CC5B220
:100BB000802DF6DB601CC4B2082CF0DBFFF7ADFF24
:100BC00030BDF0B5144600267F2801DC3F2900DD4A
:100BD000F0BD0B46CF1701EB5777FF10C7F10707A2
:100BE000FAB2CF1701EB5777FF10A1EBC707FDB2A1
:100BF000C5F107070123BB40DEB24CB1B64B03EB96
:100C0000C0039B5C3343B44F07EBC007BB5408E001
:100C1000B14B03EBC0039B5CB343AF4F07EBC00783
:100C2000BB5400BFD4E72DE9F04F80460C46154673
:100C30001E46A346A5F12000C5B200273EE00C2EBB
:100C400007D105EB4500A54901EB800010F807909E
:100C500004E0A34800EB051010F807904FF0000ADD
:100C600026E009F0800028B121464046099AFFF7A6
:100C7000A8FF09E0099808B9012000E00020024619
:100C800021464046FFF79DFF4FEA49604FEA106951
:100C9000601CC4B2A4EB0B00B04205D15C4608F165
:100CA000010000F0FF0806E00AF1010000F0FF0A71
:100CB000BAF1080FD5DB00BF781CC7B2B742BEDB64
:100CC000BDE8F08F10B50246012000E050430B0054
:100CD000A1F10104E1B2F9D110BD2DE9FF4F81B0BE
:100CE000074691461E460E9D4FF0000A002439E04B
:100CF000301B401EC1B20A20FFF7E4FFB9FBF0F041
:100D00000A21B0FBF1F201FB1208BAF1000F16D173
:100D1000701EA04213DDB8F1000F0ED10120AB46CA
:100D200005EBDB71491001FB04710090C8B22B4642
:100D300020220299FFF777FF12E04FF0010A01200D
:100D4000AB4605EBDB71491001FB04710090C8B2A2
:100D500008F13001CAB22B460299FFF764FF00BFC9
:100D6000601CC4B2B442C3DB05B0BDE8F08F78B5F7
:100D700005460E46144618E07A2D03DD002506F1DF
:100D80001000C6B23A2E04DD002005460646FFF7E5
:100D900003FF0120009022780C2331462846FFF7FC
:100DA00042FF05F10800C5B2641C20780028E3D199
:100DB00078BD10B54B48806940F00800494988610A
:100DC00049480068494908404749086008460068A2
:100DD00047490843444908604248806940F004009C
:100DE000404988614348006820F0704041490860EC
:100DF0000846006840F00050086000203549083976
:100E000008606420FFF768FA01203B49C1F88C01B3
:100E10000021AE20FFF75AFE0021D520FFF756FE35
:100E200000215020FFF752FE0021A820FFF74EFEC0
:100E300000213F20FFF74AFE0021D320FFF746FEA6
:100E400000210846FFF742FE00214020FFF73EFE4A
:100E500000218D20FFF73AFE00211420FFF736FE17
:100E600000212020FFF732FE00210220FFF72EFE96
:100E70000021A120FFF72AFE0021C020FFF726FE57
:100E80000021DA20FFF722FE00211220FFF71EFECC
:100E900000218120FFF71AFE0021EF20FFF716FE48
:100EA0000021D920FFF712FE0021F120FFF70EFEEE
:100EB0000021DB20FFF70AFE00213020FFF706FEAD
:100EC0000021A420FFF702FE0021A62016E000006A
:100ED000BC0121429481214284010020C64D0008BA
:100EE0003A52000800100240000C0140FF0F00FFC2
:100EF000002022000408014000802142FFF7E6FDA7
:100F00000021AF20FFF7E2FDFFF746FE10BD000015
:100F1000C148806940F00400BF498861BF4800684B
:100F200020F07060BD490860BB48806940F40070E3
:100F3000B94988610846C06840F40070C860084636
:100F4000C06820F40070C8600846406820F4404043
:100F500048600846406840F400404860B048006877
:100F6000B0490840AE490860084600680860084675
:100F7000006820F480700860081D006820F00200FE
:100F8000091D08600846006820F4602008600846D3
:100F9000006840F4602008600846006840F4801053
:100FA00008600846006820F4006008609C4828300B
:100FB000006820F470009A492831086008460068EB
:100FC0000020086096480C30006820F0706094495A
:100FD0000C3108600846006840F4E0100860904852
:100FE000001D006840F001008D49091D0860084699
:100FF000006840F00800086000BF8948001D0068D4
:1010000000F008000028F8D18548001D006840F075
:1010100004008349091D086000BF8148001D006865
:1010200000F004000028F8D1704701467C483030B9
:10103000006820F01F007A4A3032106010460068C5
:10104000084310607648001D006840F48000744A30
:10105000121D106000BF7248001F006800F00200FF
:101060000028F8D06E484830006880B270472DE9FB
:10107000F04F87B00620FFF7D8FF019003F03FF84C
:1010800080464FF06632684B03F088F80022674BC9
:10109000CDE9020103F082F80022654BCDE904019D
:1010A00003F07CF806460022624B02F065FE04461F
:1010B0000022614B02F060FE824602F0F1FF0690D2
:1010C000069807B0BDE8F08F10B55348806940F02E
:1010D0000400514988615148006820F470404F492C
:1010E00008604D48806940F400704B4988610846AB
:1010F000C06840F40070C8600846C06820F4007002
:10110000C8600846406820F440404860084640688F
:1011100040F4004048604248006842490840404965
:1011200008600846006808600846006820F480707F
:101130000860081D006820F00200091D08600846CC
:10114000006820F4602008600846006840F46020D1
:1011500008600846006840F480100860084600688F
:1011600020F4006008602E482830006820F47000E9
:101170002B4928310860084600680020086028488C
:101180000C30006820F4704025490C310860084696
:10119000006840F4606008602148001D006840F06D
:1011A00001001F49091D08600846006840F008005A
:1011B000086000BF1A48001D006800F00800002801
:1011C000F8D11748001D006840F004001449091DBB
:1011D000086000BF1248001D006800F004000028ED
:1011E000F8D10120FFF778F810BD2DE9F04107464E
:1011F0000C460025002608E03846FFF716FF054498
:10120000C820FFF74DF8701CC6B2A642F4DBB5FB50
:10121000F4F080B2BDE8F081001002400008014007
:1012200004240140FFFFF00066660A4000002640EB
:10123000000059400000F03F0000B04070B5054686
:101240000C461348806940F40060114988611148D8
:101250000580001F04800F482038008840F00100FE
:101260000C49203908800846008840F0400008807A
:1012700008482C38008840F0010006492C390880C5
:101280000223192203210120FFF75EF870BD000040
:10129000001002402C2C01402F48806940F00800CB
:1012A0002D4988612D48006880B22C4908600846A5
:1012B00000682B49084329490860704700B5034678
:1012C0000A46FFF7E9FF2448C06940F002002249BE
:1012D000C8610846806940F0080088611F48001F07
:1012E000006820F0FF001D49091F086008460068DB
:1012F00040F0BB0008601B480380001F02801948B3
:101300001038008840F4C04016491039088008465B
:10131000008840F0600008800846008840F40060C3
:1013200008800846008840F008000880081D0088F2
:1013300040F48050091D08800846008840F4807001
:101340000880802007492C3908800846008840F032
:101350000100088000BD000000100240040C0140A4
:10136000000022222C04004010B58448C06940F0DF
:1013700001008249C8610846806940F00400886124
:101380007F48006820F0FF007D490860084600683B
:1013900040F044000860C804808940F00100C9049E
:1013A00088810846808940F04000888101231C2202
:1013B00003211846FEF7C8FF00204FF08041088542
:1013C0004FF6FF7088850846008820F4407008803A
:1013D0000846008820F0600008800846008B40F036
:1013E000010008830846008B40F48070088308469B
:1013F000008C20F0020008840846008C20F02000B9
:1014000008840846008B40F03000088308460089B5
:1014100040F00300088142F2107088848006008842
:1014200040F00100088010BD10B55448C06940F07C
:1014300004005249C8610846806940F0080088618C
:101440005048006820F07F404E4908600846006818
:1014500040F0884008604C48008840F001004A494C
:1014600008800846008840F04000088001231E22C2
:1014700003211846FEF768FF002043491C3108800D
:101480004FF6FF70091D08803F480C38008820F493
:1014900040703D490C3908800846008820F0600003
:1014A000088039480C30008840F0010036490C3182
:1014B00008800846008840F4807008803248143064
:1014C000008820F002003049143108800846008866
:1014D00020F0200008802C480C30008840F03000BC
:1014E00029490C3108802848001F008840F003007B
:1014F0002549091F088042F21070234918310880DD
:1015000021480C38008840F001001F490C39088040
:1015100010BD0146022904D0032907D0042911D1A6
:101520000BE04FF08042928C10B20DE0174A128807
:1015300010B20022154B1A8006E0134A18321288A6
:1015400010B201E0002000BF00BF70470E48001D30
:1015500000880D48001D008820F001000A49091D7F
:10156000088070474FF08040008A4FF08040008A2A
:1015700020F001004FF080410882704700100240C7
:1015800000080140000C01400C0800402404004009
:1015900010B5FFF7F3F9012207210020FEF70EFF37
:1015A000012205210020FEF709FF01220B21002066
:1015B000FEF704FF01220C210020FEF7FFFE0223AC
:1015C000172219461846FEF7BFFE022328221946A5
:1015D0001846FEF7B9FE10BD70B50520FEF77CFE7B
:1015E0006D48006838B96D48007808B9012000E0FE
:1015F00000206A49087068480830006898B968484F
:101600004FF07E510568006803F012F864492C46DB
:1016100008604FF08141204603F03AF903D14FF0C2
:101620007E505F49086020205E4908608020086085
:1016300070BD10B50520FEF74FFE57481830006802
:1016400068BB4FF07E515648006803F021F908D17D
:10165000554801685548006803F0C0FA53490860CE
:101660002DE04FF080414E48006803F011F908D199
:101670004F4801684F48006803F0B0FA4D490860D0
:101680001DE04D494648006803F002F908D14B4877
:1016900001684B48006803F0A1FA494908600EE070
:1016A0004FF081413E48006803F0F2F807D1454809
:1016B00001684548006803F091FA434908603648DC
:1016C0001C30006868BB4FF07E513548006803F05D
:1016D000DFF808D1344801683448006802F0A8FFF8
:1016E000324908602DE04FF080412D48006803F03A
:1016F000CFF808D12E4801682E48006802F098FF04
:101700002C4908601DE02C492548006803F0C0F80A
:1017100008D12A4801682A48006802F089FF284950
:1017200008600EE04FF081411D48006803F0B0F8FA
:1017300007D1244801682448006802F079FF224953
:10174000086000211948006803F03EF902D8002023
:101750001649086000211748006803F035F902D8DF
:1017600000201449086000211548006803F02CF996
:1017700002D800201249086000211348006803F0D5
:1017800023F902D80020104908604FF40060054991
:1017900008604000086010BD1401214200000020D4
:1017A00028000020140401402C0000201800002014
:1017B000300000201C0000200000404034000020C9
:1017C00020000020380000202400002010B54FF435
:1017D00002646420FFF709F9CC49086008460068F4
:1017E000012801D1CA490860C8480068022801D10F
:1017F000C7490860C6480068012812D1C54800687A
:10180000401CC4490860C4480068401CC2490860C4
:1018100008460068A04204D10020BD490860BE49C6
:101820000860BB480068022812D1BA480068401E10
:10183000B8490860B8480068401CB74908600846C5
:101840000068A04204D10020B1490860B249086094
:1018500010BD0146002901DA484200E00846704701
:1018600000B50246002A07DA0120AC4908600020D2
:10187000AB49C1F8B40106E00020A8490860012086
:10188000A749C1F8B4011046FFF7E3FFA549088056
:1018900000BD0146A44A1278012A03D040F2564204
:1018A00091420BDA0122A04B1A70012000229B4BBF
:1018B0001B1D1A609A4BC3F8B02100E0002070474E
:1018C00041F6F420994909684242914202DA4142C4
:1018D000964A116095490968814201DD9349086083
:1018E0007047D8B90121904A1170891E904A116041
:1018F00042F210718F4A11808E492439098841F0D3
:1019000001018C4A243A118042F210718A069184B6
:101910008906098841F00101118002E00021824A14
:10192000117070472DE9FC4782467A490968AAEB95
:10193000010003F01DF8804908608048006802F04B
:101940004BFE04467E4A7F4B02F028FC064602F01E
:1019500025F97A4908607848006802F03DFE06469D
:10196000774A794B02F01AFC04460D46734800682A
:1019700002F032FE804622462B4602F041F9CDE9C4
:10198000000102F00BF96D490860704801686B486E
:10199000006803F023F96E490860684800686B49E5
:1019A00008606C4801686A48006803F041F8044622
:1019B000694801686148006803F03AF80546214625
:1019C00002F036FE654908606548C0F800A060482E
:1019D000006802F091FF624988606048006802F088
:1019E0008BFFBDE8FC872DE9F04705465D49284699
:1019F00003F0F4F804465C480168204603F0EEF872
:101A00005A4908605A4801685848006803F010F8BD
:101A100082465848006880F000492146484603F055
:101A200007F88046514603F0D9F8074602F064FFF4
:101A300006464D480460284602F05EFF484948606B
:101A40004A48006802F058FF4549C8603046BDE882
:101A5000F08710B54848008800F00100002852D0F7
:101A60004548008820F00100434908804348006849
:101A7000401C424908600420FFF74BFD40490860C4
:101A80000F210320FFF7B1FB044602F089FF3D4917
:101A9000086008460068FFF7A6FF3B490860384821
:101AA0000068FFF73FFF39490860394800681F495F
:101AB000086008460068FFF714FFFFF701FF35488C
:101AC0000068FFF7E6FE40B918480068FFF7C8FE57
:101AD00017480068401C164908602F4800682049D4
:101AE0000861134800684861FEF7C4FE2848006892
:101AF000294908606420FEF721FFFFF7B8FA25495D
:101B00000860FFF763FE002010BD00009800002071
:101B10009C00002008000020A0000020B08121428D
:101B20000080214240040040000000200C00002002
:101B30005000002024080040940000208C00002069
:101B40009A9999999999E93F9999C93F88000020F4
:101B500090000020240000202000002084000020AD
:101B6000A400002000D040457C0000208000002020
:101B70001C00002018000020102C01403C00002018
:101B800004000020140000207000002074000020D9
:101B900048000020100000204C000020704700008A
:101BA0000FB4044910B503AA029800F08BFB10BCD7
:101BB0005DF814FB5C00002070B50C460546012A58
:101BC00005D02878800600D5EA69002302E00123C9
:101BD00005E05B1C934202D2E05C0028F9D1A869C1
:101BE000E618C01AA861286A184428622846AFF38C
:101BF000008004E0D5E9012114F8010B9047B442BC
:101C0000F8D32846AFF3008070BD00002DE9F04105
:101C10000646002410687529314615A510D0AFF38B
:101C20000080002802DA404212A507E031688A07E6
:101C300001D511A502E0490704D510A5012401E052
:101C4000AFF3008000210A2306F1240707E0B0FB70
:101C5000F3F203FB1200303078541046491C002880
:101C6000F5D123462A463046BDE8F04100F0AFB832
:101C7000000000002D0000002B00000020000000EC
:101C80002DE9F0474FF0000A89460446C0F820A02D
:101C90002046E1688847002876D0252806D0D4E978
:101CA00001219047206A401C2062F1E7E16820464C
:101CB00000258847C4F81CA006460027C4F818A0D1
:101CC0002A2E09D0304601F0B4FE38B304EB870861
:101CD000303EC8F8186019E059F8041B204604EBA0
:101CE00087029161E1688847012F064618D1E069B3
:101CF000002820DA25F020051DE0D8F8180000EBB8
:101D0000800006EB40003038C8F818002046E16833
:101D10008847064601F08DFE0028EED1012F0AD03B
:101D20002E2E08D12046E16888477F1C0646022FE8
:101D300045F02005C4DBA069002803DA404245F0E5
:101D40000105A061E80701D025F01005B6B1A6F1A4
:101D50004100192802D8203645F400654A4631462C
:101D6000204625604D46FEF7FBF958B1012806D004
:101D7000ED1D25F0070000F1080989E704E005F1F1
:101D8000040985E730468AE7206ABDE8F08770B528
:101D9000064600F00DF80468054630460A22002188
:101DA00000F0F2FA2C6070BD7047704770477047C2
:101DB000004870478405002010B5FFF7F9FF006860
:101DC00010BD10B50446FFF7F3FF046010BD2DE908
:101DD000F0470D4699469246044600F124080168F2
:101DE000880604D5E06921F01001216000E001209F
:101DF000A84201DD471B00E00027A1697A1902EB28
:101E00000900081AA0612078C00602D42046AFF36A
:101E10000080002608E0D4E901211AF80600904766
:101E2000206A401C761C20624E45F4DB2078C006F8
:101E30000AD52046AFF3008006E0D4E90121302026
:101E40009047206A401C2062381EA7F10107F4DC8D
:101E500007E0D4E9012118F805009047206A401CEA
:101E60002062281EA5F10105F3DC2046AFF30080B7
:101E70002078000602D50220BDE8F0870120FBE7AC
:101E800070472DE9FF4F0C461E464FF0FF378BB0D1
:101E9000D2E90001DDF860800A908A46C1F30A5554
:101EA00005B93D46002108464FF00000BAF1000F89
:101EB00000F4400005DA00EB80004FF4400101EA35
:101EC00050004FEA9059B9F1010F00DDB9460A9868
:101ED00050EA4A000ED044F61050A5F2FF354543B3
:101EE0002F14B8F1000F1ED07542291E1EDDC9F156
:101EF00000021CE0B8F1010F4FF0000001D03021CA
:101F000003E0F24305E02154401CB042FBDB3046C5
:101F10000022002121540B99C1F80880C1E900205A
:101F20000FB0BDE8F08FBD1B6D1CDEE74A4600DA3E
:101F3000694206A800F086FB06AB93E8070003ABF6
:101F400083E8070050460A9901F0F1F88DE8070090
:101F5000A0F500501F3800900398002D09DD42F2D3
:101F60001F014A46084403A90390684601F07BFB21
:101F700008E0A0F500504A461F3803A903906846C0
:101F800001F099FB8DE807000004000C03D04FF02E
:101F9000FF30410800E01046B8F1000F03D00022E6
:101FA000009215461EE0751E05D400F035FA303259
:101FB00062556D1EF9D5B3460122084302D00022B6
:101FC0007F1C04E02078302801D100227F1E002AE7
:101FD000099786D01DE0112D07DA00F01DFA303286
:101FE00062556D1C50EA0102F5D1084302D00098F9
:101FF000C8B10EE00021681E05E0235C625C6354FA
:102000002254401E491C8142F7DBAB46A81B401EF0
:102010000990002004F80B000B98099AC0F808807A
:10202000C0E9002B7CE711264FF0000859E72DE9A5
:10203000F04F88460446D21D22F0070191B0D1E945
:102040000001CDE90A0101F080FC02460B98C00FA7
:1020500001D02D2007E02068810701D52B2002E068
:10206000202101EAC000032A099001D0072A05DBDC
:1020700003464146204600F035FA09E12078800603
:1020800001D5E06900E00620B8F1650F814606D071
:10209000B8F1660F18D0B8F1670F70D131E00020A9
:1020A000B9F1110F009001DB112301E009F10103E7
:1020B0000AAA01A90CA8FFF7E4FEDDE90C700026CE
:1020C00009F10105834647E001204B4600904FF09F
:1020D00000470AAA01A90CA8FFF7D3FEDDE90DB05D
:1020E0000C995D46002610B909F101000D18B9EBF5
:1020F000050003D4C0F1FF3609F10105A5EB090085
:102100002BE0B9F1010F01DA4FF001090020B9F11C
:10211000110F0090484601DD112300E003460AAA92
:1021200001A90CA8FFF7ADFEDDE90C704D460026B5
:102130008346207800070AD4AB4500DA5D4601A843
:10214000012D04DD411911F8011C302907D04F453C
:1021500002DA17F1040F04DA012082460FE06D1E47
:10216000EEE7002F02DCED1B3E4403E0781CA842A2
:1021700000DD7D1CB81B00F1010A4FF000472078FC
:10218000000703D4AA4501DB4FF0FF3A0021B7F165
:10219000004F0DF143088DF8431022D002202B236D
:1021A000002F01DA7F422D234FF00A0C011EA0F10F
:1021B000010000DC47B197FBFCF10CFB11720F46EC
:1021C000303208F8012DF1E7A8F1010003702188F1
:1021D000090501D5452100E06521A0F1010800F8BD
:1021E000011C09980FA9A1EB0807FF1D00B10120F0
:1021F000411901EBEA70A1693844081A401EA06138
:102200002078C00602D42046AFF30080099828B198
:10221000D4E901219047206A401C20622078C00642
:1022200022D52046AFF300801EE0002E04DBB3452C
:1022300002DD01A8805D00E03020D4E90121904753
:10224000206A401C2062761CAAF101005FEA000AA5
:102250000AD100F0DDF8C0680168405CD4E90121D2
:102260009047206A401C2062281EA5F10105DCDC95
:1022700007E0D4E9012118F8010B9047206A401CBF
:102280002062381EA7F10107F3DC2046AFF300807F
:10229000022011B045E610B5436913B1AFF30080D9
:1022A00001E0FFF789FC012010BD127800F1240144
:1022B0000A7000224A700122EDE711684FF0FF32E8
:1022C000E9E70000074B70B50D467B4400F0F7F8D6
:1022D0000446284600F022FA10B14FF0FF3070BDDE
:1022E000204670BD0DE3FFFF0FB4002300B589B099
:1022F0000CA900910B99CB60204B7B440693204B9B
:102300007B44079304236FF00042CDE901321D4A5C
:102310007A446B4608920246002002F036FD09B06E
:102320005DF814FB70B506464FF0FF3015460C46BD
:10233000324686B00091CDE9010169460020049043
:1023400004A8FFF7D1FF03460498211825B108B16E
:102350000A4600E022462A6000280DD0002B02DD4C
:102360000098884208D03246081B69460094CDE99F
:10237000010404A8FFF7B8FF06B070BD67020000B3
:102380007F0200008F0100002DE9F04791460F46C3
:1023900080460446002614F8015B2DB100F030F8A9
:1023A0000068405DC007F6D12B2D02D02D2D18D02E
:1023B000641E4A463946204600F0F4F827B13968D1
:1023C000A14201D1C7F800804FF0020471050BD57E
:1023D0004042002803DDFFF7EBFC0460A007BDE8E6
:1023E000F08746F48066E4E70028F8DAFFF7E0FCBF
:1023F00004606FF00040F2E7004870478405002059
:1024000010B500F005F8001D10BD00BF65170000F5
:1024100000487047A405002030B5B0F10A024FEA29
:10242000900E71F100034EEA817EB0EB0E0061EB7D
:1024300091014FEA101E4EEA017E10EB0E0041EBB7
:1024400011114FEA102E4EEA016E10EB0E0041EB17
:1024500011214FEA104E4EEA014E10EB0E0041EBF7
:102460001141401841F100014FEAD00040EA4170AB
:102470004FEAD10110EB80054FEA810444EA9074E1
:1024800044EB01046D1944EB0404521BA3414FF0CB
:10249000000348BF0A3200D530BD401C41F10001A5
:1024A00030BD10B50446FFF7ABFF0068005D00F0DB
:1024B000010010BD01694A1C02610878704700B52F
:1024C0008FB0CDE901310021059105497944CDE96D
:1024D000031011466846FFF7D3FB0FB000BD0000A4
:1024E000E5FFFFFF2DE9F0411F4604460326016882
:1024F000072A01F4006004DB08B116A505E016A563
:1025000003E008B115A500E015A521F0100020603A
:10251000A069C01EA0610FB1401EA0612046AFF3AC
:1025200000804FB1D4E9012138469047206A401C11
:102530002062C01C206206E0206AFAE7D4E901218B
:1025400015F8010B9047761EF8D22046AFF30080B5
:10255000BDE8F0814E414E006E616E00494E46006E
:10256000696E6600426842B1016811F8013B23B10F
:10257000521EC0E90012184670470121C160881E32
:10258000704742685AB1C368016843B983688B4297
:1025900005D0491E521CC0E90012002070474FF0C0
:1025A000FF3070472DE9F05F824615468B460027C5
:1025B0000AF10104B9460078302801D09DB113E03A
:1025C00014F8010B0127782803D0582801D045B111
:1025D0000AE00DB1102D07D1002714F8010B1025CA
:1025E00002E0082500E00A250026B0460EE005FBC3
:1025F000080005FB06F101271FFA80F801EB1046E1
:10260000B6F5803F00D3B94614F8010B294600F017
:10261000AEF80028EBDABBF1000F05D00FB1641E55
:1026200000E05446CBF80040B9F1000F06D0FFF7A8
:10263000BFFB02210160C81EBDE8F09F48EA0640CA
:10264000FAE700002DE9F047814616468AB0324885
:1026500078440DC88DE80D002F487844801C03ACE9
:102660000DC884E80D0041F69B303722014491FBF0
:10267000F2F0A0F1800502FB10141B3C02D564426D
:10268000012000E00020DFF890A080460027FA44F7
:10269000AAF1BA0A0DE0E00709D03246684607EB16
:1026A00047010AEB810101F006F88DE8070064108C
:1026B0007F1C002CEFD1184F7F44A83F18E0E8079B
:1026C00014D007EB04100DF1180A90E80E008AE808
:1026D0000E00C068F04201D198190890324606A950
:1026E00003A800F0E8FF03AB83E807006D10641C4B
:1026F000002DE4D132466946B8F1000F03A802D09C
:1027000000F0B1FF01E000F0D6FFC9E90001C9F80F
:1027100008200AB0BDE8F08754320000007B00F0CA
:10272000800070477546FFF767FEAE4605006946B4
:10273000534620F00700854618B020B5FDF74EFD42
:10274000BDE820404FF000064FF000074FF00008B2
:102750004FF0000B21F00701AC46ACE8C009ACE833
:10276000C009ACE8C009ACE8C0098D4670473A28FA
:1027700000D2303820F02002412A01D3A2F13700E4
:10278000884201D34FF0FF30704700002DE9FF4F22
:10279000064689B00878FF2806D0491C2D2805D0A8
:1027A00000244FF0000908E000200CE00124F8E7C5
:1027B00009EB8903491C00EB43090878FF28F7D18E
:1027C00014B1C9F100008146107800252C46AA46B4
:1027D00029462D2801D02B2804D1521C2D2813D096
:1027E000002082468B461078FF280FD04FF0000C57
:1027F0000A21521CA5FB017804FB018105FB0C1189
:10280000C5194BEB0104EEE70120EAE70021084679
:102810004FF00000BAF1000F02D000EB800040083A
:10282000C0F38158B8F1010F01DD4FF0FF380C986B
:1028300009EB000755EA040009D04FF0020917F52B
:10284000FA7F0BDA4FEACA70C6E900B012E04FEA2D
:10285000CA70C6E900B00DB0BDE8F08FB7F5FA7FD9
:102860000DDDF0487844D0E90010C6E9001040EAD8
:10287000CA707060FFF79CFAC0F80090EBE7391E51
:1028800002DAC8F1000200E0424600DA794206A806
:10289000FFF7D8FE06AB93E8070003AB83E8070019
:1028A00044F23E005BEA04010090584604D144F231
:1028B0001E012C465D460091210C0904014306D1FE
:1028C0000099240444EA15442D041039009104F0C1
:1028D0007F41014306D10099240244EA15642D0288
:1028E0000839009104F07041014306D10099240198
:1028F00044EA15742D01091F009104F04041014381
:1029000006D10099A40044EA9574AD00891E009197
:1029100004F00041084304D100986D196441401E41
:10292000009042466846002FCDE9014503A902DD2B
:1029300000F0D5FE01E000F0AAFEBAF1000F044657
:102940000D4601D084F0004440F2FF7724F00040AF
:10295000284303D0C4F30A50B84212D1FFF728FA33
:10296000C0F80090C4F30A50B8420AD1AE48784487
:10297000D0E90010C6E9001004F00041084370607F
:1029800069E7C6E9005466E72DE9FF4F1F464FF09F
:10299000000A4FF0FF38454691B0D7E90146CDF81F
:1029A0003CA0FFF735FDC0680168405C1090B96934
:1029B00012986D1C8847396A814688470028F6D1ED
:1029C000B9F1FF3F0AD0002E24F4D06411DDB9F133
:1029D0002B0F08D0B9F12D0F0BD102E0404615B0F6
:1029E0003AE744F48064B96912986D1C8847761EF2
:1029F0008146600504A901D52D2000E02B20002E82
:102A000001F1010B0DF130088DF810003FDDB9F137
:102A1000690F08D0B9F1490F05D0B9F16E0F02D096
:102A2000B9F14E0F1CD13B4601A8009580E8500239
:102A3000DDE912126FF0020002F0ABF9C11CCED139
:102A40000EE0B96912986D1C884781461398761E6E
:102A500044F4007405600F98401C002E0F9016DDA2
:102A6000B9F1300FEDD0B9F1780F02D0B9F1580FAC
:102A70000DD10F9801280AD13B46CDE90054DDE97C
:102A80001212001F029602F082F9C11CA7D1109900
:102A900089453ED144F0800406E01399681CAAF1F0
:102AA000010A44F400740860B9696D1C1298761E1E
:102AB000884730288146F0D02BE01099894505D110
:102AC000200603D4761E44F0800418E0484600F047
:102AD000B0FF08B3761E0DF123018B4544F400745A
:102AE00008D2A9F130000BF8010B200607D5AAF196
:102AF000010003E0200602D40AF101008246A0058D
:102B000002D51399681C0860B96912986D1C884732
:102B10008146002ED1DC53E0002E51DDB9F1650F66
:102B200002D0B9F1450F4BD1A00549D5B9696D1C4B
:102B30001298761E24F440748847002E81460CDDDE
:102B40002B2804D0B9F12D0F07D144F48074B96952
:102B500012986D1C8847761E8146E00501D52D210F
:102B600000E02B2108F8011BCDF8008021E0761E43
:102B70000DF13901884544F400740CD2A9F13000FC
:102B800010F0FF0088F8000002D10099884509D9AB
:102B900008F1010806E0E00501D5244801E042F211
:102BA0000F708246B96912986D1C88478146139848
:102BB0000560002E04DD484600F03BFF0028D6D11A
:102BC000F96912988847FF2053468BF8000088F86F
:102BD000000000200A900B9004AA0CA90AA8FFF795
:102BE000D5FDA00502D46FF00100F8E614F0240F23
:102BF0000AD0E00714D13868DDE90A12031D3B60F2
:102C00000068C0E900120BE00AA9684600F0BAFEAD
:102C1000E00705D13868009A011D3960006802603C
:102C20002846DCE6783000006E2F0000F1D8FFFF68
:102C30000446AFF300802046FDF7B8FA4FF0013CA0
:102C400050F8042B51F8043B9A4221D1A2EB0C031B
:102C5000934313EACC1317D150F8042B51F8043BDB
:102C60009A4215D1A2EB0C03934313EACC130BD178
:102C700050F8042B51F8043B9A4209D1A2EB0C0303
:102C8000934313EACC13DBD04FF00000704700BF32
:102C9000D01A01BAB1FA81F101F0180122FA01F05B
:102CA000CB40C1F12001DBB2C0B2C01A2CFA01F353
:102CB000D11A914311EAC311E6D170472DE9FF4FB4
:102CC0001F464FF03C0987B04FF00042DDE9141079
:102CD00001F10108DDF858A002EA405003900020FD
:102CE00004908346054604460590B969461E089837
:102CF0008847AAF1010A0290BAF1000F37DD029865
:102D00002E2815D01021FFF732FD00282ADB4FF0C6
:102D1000010B0499014316D0B9F1000F0BDB4A46B1
:102D2000C11700F0F1F905430C43A9F1040905E0CE
:102D30000120059007E008B145F00105012004904D
:102D4000059800B9361DB969089808F10108884747
:102D5000BBF1000FAAF1010A0290CDD00999C1F888
:102D60000080C9E70298702808D0502806D0F96979
:102D700008988847BBF1000F14D04FE00020029064
:102D80000120BBF1000F049009D0B969089808F13F
:102D900001088847AAF10109B9F1000F07DCF969B8
:102DA000089888476FF001000BB0BDE8F08F2B2822
:102DB00004D02D280CD14FF0FF300490B969089849
:102DC00008F101088847A9F10109B9F1000FE6DD12
:102DD000411CE4D00A21FFF7CAFC0028DFDB02997E
:102DE00008F1010801EB810100EB41000290B96993
:102DF000089888470A21FFF7BAFC099AA9F1010946
:102E0000B9F1000FC2F8008001DD0028E7DAF969A6
:102E1000089888470499029800FB016655EA040067
:102E200004D004F04041090002D006E0039898E085
:102E3000A40044EA9574AD00B61E04F000410800F9
:102E400002D16D196441761E159810F0240F03D03D
:102E50004FF00B095C4803E04FF028096FF07D004C
:102E60008246564507DAAAEB06018944B9F1410FBB
:102E700001DD4FF0410901200021A9F1010200F01C
:102E800043F9024628400B462140084301D0012166
:102E900000E00021501E029143F1FF312840214003
:102EA000084301D0012000E000200299834651EA46
:102EB0000B014FD0002108464FF00000039900F4A9
:102EC000400039B100EB80004FF4400100EBD070BE
:102ED00001EA60008015012802DD4FF0FF3000E0BC
:102EE00013D0401C36D0029860B3BBF1000F0CD158
:102EF0004A460120002100F007F9284021400843FC
:102F000001D0012000E00020E0B101204A4600216C
:102F100000F0FAF8034640190A4661412D1A8C4127
:102F200011D3B9F1400F09DD159810F0240F02D02C
:102F3000AAF1340603E0AAF1170600E0761C00258A
:102F40004FF0004406E05B1E42F1FF3220EA030529
:102F500021EA0204CAF10100B04206DA1B490398D3
:102F600008430190002000900EE0039AC4F3D3219F
:102F7000E80A0A43164940EA44500A433146CDE97B
:102F80000002684600F04AFD159810F0240F0BD09F
:102F90001598C00715D13868DDE90012031D3B60A4
:102FA0000068C0E900120CE002A8694600F0EAFCE3
:102FB0001598C00705D13868029A011D396000686C
:102FC00002604046F0E6000002FCFFFF0000F07FD8
:102FD0000000F03F2DE9FF4F92461D4685B04FF0AF
:102FE0000041DDE9124BDDE914727F1E01EA4B500E
:102FF000414940F0FF4940EA0108002122F0200049
:103000004928049102D04E2828D04CE03BA001264C
:1030100007C88DE80700A9690698641C88477F1EC9
:10302000014606D41DF8060018B121F020018142A6
:103030000BD0E96906988847032E34D0082E32D089
:103040006FF0010009B0BDE8F08F761C032E01D0AF
:10305000082EE0D1601CCAF80000DCE7A9690698D8
:10306000641C88477F1E2AD420F02000412826D1E6
:10307000A9690698641C88477F1E20D420F0200090
:103080004E281CD1A9690698641C88477F1E48F405
:10309000002849F48009CAF8004001D4282806D045
:1030A000E969069888475FEACB7012D022E0A969E7
:1030B0000698641C88477F1E01D4002803DAE9695A
:1030C00006988847BCE72928F1D1641CCAF800405B
:1030D000E9E71BF0240F07D028680499031D2B6033
:1030E0000068C0E9001805E02868021D2A60006831
:1030F000C0F800902046A5E70000F07F494E464901
:103100004E49545900000000B2F120030AD5C2F123
:10311000200301FA02F120FA03F300FA02F041EA77
:103120000301704700FA03F14FF0000070475FEAB7
:10313000400C08BF91F0000F4FEA8C234FEAC122E8
:1031400043EA51514FEA1C5018BF00F5F0404FEAD6
:10315000300018BF41F000415FEA6C5C00F029804C
:10316000BCF1FF3F08BF40F080407047130C06BF22
:1031700012044FF0100C4FF0000C130E04BF12029B
:103180000CF1080C130F04BF12010CF1040C930F87
:1031900004BF92000CF1020CD30F04BF52000CF1DB
:1031A000010C11464FF00002A0F11F00A0EB0C0033
:1031B000704711F0004F08BF704731F000413FF4F5
:1031C000D5AF0B0C06BF09044FF0100C4FF0000CEC
:1031D0000B0E04BF09020CF1080C0B0F04BF090110
:1031E0000CF1040C8B0F04BF89000CF1020CCB0F07
:1031F00004BF49000CF1010CCCF12003A0EB0C0042
:1032000022FA03F302FA0CF241EA030100F1010091
:10321000704720F07F4C80EA030023F07F47ACEB3F
:10322000070303F57C5300F0004003F1FF032DE991
:1032300080494FEA154B09B44FEA144325EA0B4E77
:1032400024EA03480FF2042606EB132749083E78C8
:103250005FEA320203FB0667C7F5000707FB06F6C5
:103260004FEA54374FEAD64606F1020607FB066CD2
:10327000CCF1005C4FEA1C472CEA074C07FB06F434
:103280000CFB06F504EB15464FEA961634BF0020FA
:103290004FF000404FEAD13706FB07FC4FEA1C4CC9
:1032A0000CFB0BF7D21B03FB0CF761EB07010CFBCC
:1032B0000EF7B0EB074072EB17420CFB08F734BF78
:1032C000A2EB0742B2EB074261EB17414FEA0C4415
:1032D0004FEA910706FB07FC4FEA1C4C0CFB0BF76F
:1032E000B0EBC74072EB573203FB0CF734BFA2EBD5
:1032F000C742B2EBC74261EB57310CFB0EF7B0EBA4
:10330000C70072EB57720CFB08F734BFA2EBC70281
:10331000B2EBC70261EB5771039F4FEA816141EA4B
:10332000921104EBCC044FEAD1374FEA826206FBDC
:1033300007FC42EA90124FEA80604FEA1C4C0CFBFB
:103340000BF7D21B03FB0CF761EB07010CFB0EF72D
:10335000B0EB074072EB17420CFB08F734BFA2EB4F
:103360000742B2EB074261EB17414FEA8C554FEA37
:10337000910704EB9C2406FB07FC4FEA1C4C0CFB5A
:103380000BF7B0EBC74072EB573203FB0CF734BFBF
:10339000A2EBC742B2EBC74261EB57310CFB0EF711
:1033A000B0EBC70072EB57720CFB08F734BFA2EB0F
:1033B000C702B2EBC70261EB577115EB4C254FEA20
:1033C000816141EA92114FEA82624FEAD13742EAC3
:1033D000901206FB07FC44F100044FEA80604FEABC
:1033E0001C4C0CFB0BF7D21B03FB0CF761EB07012A
:1033F0000CFB0EF7B0EB074072EB17420CFB08F723
:1034000034BFA2EB0742B2EB074261EB174115EB69
:103410001C154FEA813141EA92414FEA823242EA79
:1034200090424FEA80304FEA0C7644F1000448EABB
:1034300003434EEA0B484FF0000EB2EB080C71EB61
:10344000030724BF624639464EEB0E0E4FF0000BC9
:103450000018524149414BEB0B0BB2EB080C71EBDE
:1034600003077BF1000B24BF624639464EEB0E0E7C
:103470004FF0000B0018524149414BEB0B0BB2EBE4
:10348000080C71EB03077BF1000B24BF6246394641
:103490004EEB0E0E51EA020718BF46F0010616EB7E
:1034A0000E7655F1000254F1000103D5BDE8890103
:1034B000BDE80088BDE88901B619BDE80048524161
:1034C00041EB0101A3F10103704780807F7E7D7C89
:1034D0007B7A7978777676757473727171706F6EA6
:1034E0006E6D6C6C6B6A6A69686867666665646451
:1034F000636362616160605F5F5E5E5D5D5C5C5BDB
:103500005B5A5A5959585857575656555555545449
:10351000535352525251515050504F4F4F4E4E4DA7
:103520004D4D4C4C4C4B4B4B4A4A4A4949494848F3
:103530004847474747464646454545444444444333
:1035400043434342424242414141000046EA06466B
:10355000A3F570534FEA164646EA42564FEAD22286
:1035600042EA415210B54FEAD121A3F1010300F024
:1035700017F820F0004000F1010C00F0004701EBCB
:1035800000501146BCF5006F40EA070000D210BDA4
:1035900002484FF0000140EA070010BD0000F07F34
:1035A000002B26D4770021D01CB54FEA370703B48F
:1035B0004FF010004FF010014FF000000FBC0BF166
:1035C000010BBDE81040BBF1010F08BF5FEA170710
:1035D00022BF12F1010211F101014FF0004143F14C
:1035E000000300F0004043EA00007047F9D3570899
:1035F000DAE746EA064613F1400F4FEA16461FDDAA
:1036000013F1200FDFBF16430A46002120335B422F
:10361000C8D0C3F1200746EA064602FA07F74FEA88
:10362000164646EA0706C3F1200722FA03F201FA1A
:1036300007F721FA03F14FF0000342EA0702B1E76E
:1036400046EA020646EA06464FEA164646EA0106FA
:10365000BCBF46EA0646360C4FF000034FF00002AE
:103660004FF000019EE72DE9C048934630B491E841
:10367000380007C831EA400C48BF34EA430C03D590
:10368000FFF7C7FDFFF78CFFF0BCBDE800882DE910
:10369000C048934630B491E8380007C831EA400C7E
:1036A00048BF34EA430C03D5FFF7B3FDFFF74EFFE5
:1036B000F0BCBDE800882DE9C048934630B491E8DD
:1036C000380007C810F0804F08BF13F0804F03D1B7
:1036D00000F019F8FFF764FFF0BCBDE800882DE9A1
:1036E000C048934630B491E8380007C810F0804FC6
:1036F00008BF13F0804F03D100F005F8FFF726FF55
:10370000F0BCBDE8008820F07F4780EA030023F08A
:103710007F4C07EB0C03A3F57C5300F00040A3F1B2
:10372000FE0392F0000F00F0B38095F0000F00F060
:1037300077802DE901494FEA11404FEA144621EA0A
:10374000004800FB06FC24EA064708FB06F607FBD8
:1037500008F800FB07F718EB06484CEB164C4FEA4D
:10376000124B18EB07484FEA15464CEB174022EA7C
:103770000B4E0BFB06FC25EA06470EFB06F607FB85
:103780000EFE0BFB07F71EEB064E4CEB164C4FF0F4
:1037900000061EEB074E4CEB174B18EB0B0840F1E5
:1037A000000018EB0E0B58EB000840F100008F1AD8
:1037B0004FF000013CBFC943661B14BFB5EB040CBE
:1037C00000213CBFC943F61B4FEA17444EEA8E0E58
:1037D00027EA04454FEA1C4704FB07622CEA074C22
:1037E00005FB07F70CFB05F604FB0CFC16EB074684
:1037F00042EB174216EB0C4642EB1C421BEB060653
:1038000058EB0202414146EA9E0601D5BDE8018916
:10381000B619524141EB0101A3F10103BDE8018951
:103820004FEA14454FEA114724EA054621EA074CBE
:1038300005FB07F406FB07F70CFB06F105FB0CFC88
:1038400011EB074144EB17444FEA124711EB0C41CF
:1038500044EB1C4422EA074C05FB07F206FB07F782
:103860000CFB06F605FB0CFC16EB074642EB174279
:1038700016EB0C4642EB1C456A1854F1000148BF98
:103880007047B619524141EB0101A3F101037047A2
:1038900095F0000F37D04FEA11424FEA144721EA62
:1038A000024624EA074C02FB07F106FB07F70CFB74
:1038B00006F402FB0CFC14EB074441EB17414FEA02
:1038C000154714EB0C4441EB1C4125EA074C02FB65
:1038D00007F506FB07F70CFB06F602FB0CFC16EBE4
:1038E000074645EB174516EB0C4645EB1C421219F3
:1038F00051F1000148BF7047B619524141EB010137
:10390000A3F1010370474FEA14454FEA114724EA37
:10391000054621EA074C05FB07F106FB07F70CFB00
:1039200006F24FF0000605FB0CFC12EB074241EBE0
:10393000174112EB0C4251EB1C4148BF70479218E3
:1039400041EB0101A3F101037047490050EAC12096
:1039500018BF04204A0D18BF40F0010040F2FF726A
:10396000B2EB515F08BF40F00200012808BF0520FC
:1039700070470000024A0020110701F0D8B900008A
:1039800001FDFFFF10B50446D1E9000100F002F887
:10399000206010BD38B504460D466A4600F066F852
:1039A00000987E30009000281FDC0022134620463D
:1039B000294600F039FB18D02046294600F0EEF8E1
:1039C0000446002140F608004FF0000040F60801D0
:1039D000014040F608004FF0000034F0004004BF02
:1039E0000220FEF7EEF9204638BD0098FF280DDBD7
:1039F0000220FEF7E6F9002213462046294600F091
:103A0000CBFC8CBF04484FF0FF4038BD2046294610
:103A1000BDE8384000F0C2B8000080FF10B5044691
:103A20000A46D4E90003194600F04CF8C4E9000145
:103A300010BD30380A2801D201207047002070479D
:103A400030B583B004460020CDE90000FEF7B4F99C
:103A50000546002221466846FEF764FC2846FEF72C
:103A6000B0F9DDE9000103B030BD000010B5144627
:103A700000222260114A21F000439342A8BF10BDEA
:103A800053EA000208BF10BDB3F5801FA8BF22682B
:103A900007DA362201F04BF96FF0350221F00043CE
:103AA0002260DFF81CC06FF31E510CEB23531A4445
:103AB00041F0FF5141F00051226010BD0000F07F45
:103AC00002FCFFFF2DE9F04106460C4640F2FF756F
:103AD000174635EA145030D000221346304600F025
:103AE000A3FA2AD03A463046214601F020F906468C
:103AF0000C4635EA145010D000221346304600F030
:103B000093FA1AD10220FEF75CF9FFF733FF0A4659
:103B1000214662F31E01BDE8F0810220FEF751F953
:103B200040F2013200204FF0E04101F000F90A4676
:103B3000214662F31E01BDE8F08130462146BDE812
:103B4000F081000010B500290AD00878002807D0BD
:103B500005487844FFF772F8002801D0002010BD16
:103B60000248784410BD0000961D00008E1D000024
:103B700010B500290AD00878002807D005487844F5
:103B8000FFF75CF8002801D0002010BD02487844FF
:103B900010BD0000861D00007E1D000021F00042C7
:103BA000A2F16052B2F5801F01F0004328BFD2F1AC
:103BB0007F6C0BD95FEA001C43EAC20242EB5070F3
:103BC00018BF704728BF20F001007047B2F5801F72
:103BD000BCBF184670474FEA410C1CF5001F02D2CB
:103BE000084600F0ECBF70B500F082FB00000089D1
:103BF000FFF7F6BF4FF00040A0F5800070470000CF
:103C000010B591EA030F48BF83F0004300F102842E
:103C1000841A71EB030C05D2121943EB0C03001B41
:103C200061EB0C01DFF824E14FEA1154A4EB135CC3
:103C30001EEA430F18BF9EEA445F73D023EA0E03C7
:103C4000DCF1200E21EA045143F4801332D322FA2E
:103C50000CFE10EB0E0023FA0CFE41EB0E01CCF132
:103C6000200E03FA0EFE10EB0E0051F10001B1F52B
:103C7000801FCCF1200E32D201EB045112FA0EF269
:103C8000BDE8104058BF7047401C38BF5FEA420291
:103C900018BF7047002814BF20F0010041F1000157
:103CA0004FEA410313F5001F38BF7047A1F1C0412F
:103CB00000F06CBB012A43EB0302ACF1200CDCF1F9
:103CC0001F0E32BF4FF0000E23FA0CF310EB03006F
:103CD00041EB0451B4EB115FD0D0A1EB045101F5DD
:103CE000801149085FEA300001EB04510ED350F116
:103CF000000038BF12FA0EFE08D1BDE81040C9E737
:103D0000401C38BF5FEA4202CAD1C3E7BDE8104099
:103D10004FEA410313F5001F38BF7047A1F1C041BE
:103D200000F034BB9EEA445F08D011EA5E0FBDE8A4
:103D3000104004BF01F0004100207047BDE8104072
:103D400070B500F0D5FA00BF64FBBE3E0000E0FF96
:103D500002494FF0000000F0B8BF00BF0000F87F3C
:103D6000491058BFC1F140415B1058BFC3F14043F7
:103D70008B42EFF3008070472DE9C04130B4DFF88B
:103D8000A0C23CEA111418BF3CEA131400F0EC8006
:103D900081EA03051CEA111444EAD57418BF1CEA31
:103DA000131500F0C780A4EB05044FF0004545EA69
:103DB000C12145EAC32341EA505143EA525304F179
:103DC0007F74994204F500344FEAC0204FEAC222C2
:103DD00008BF904200F09C804FEA13650FF2401636
:103DE000765D4FEA134506FB05F7C7F1807706FBC2
:103DF00007F74FEAD737A7FB03687642C8F5803844
:103E0000A7FB06CE38BFA8F1010807FB08E64FF074
:103E1000000EA6FB028CE6FB03CEDCF1000CCEF11B
:103E2000004E38BFAEF1010EA6FB0C584FF0000754
:103E30004FF00005E6FB0E87A1FB08C6A0FB07CEEE
:103E400016EB0E0645F10005E1FB076515F1E04EA6
:103E50007EBFA4F580345FEA46066D4116F1800707
:103E600045F100054FEA17274FEA066647EA05675E
:103E7000A6F1DE46B6F1805F4FEA15251FD9384618
:103E800024F0010C05EBC471BCF1FE6F01EB0C11C9
:103E900002D8F0BCBDE8008124425CBF01F5801E61
:103EA0009EEAC47F02D4F0BCBDE80081244238D42D
:103EB000F0BCA1F1C041BDE8004100F067BA4FEA93
:103EC000D22242EA43524FEAD323A7FB02864FEAAB
:103ED000D02040EA415007FB03661EEA0E0F4FEA6E
:103EE000D12105FB026658BFA6EB0056B6EB005683
:103EF0004FEA520E4EEAC37E18EB0E0E56EB530EEF
:103F0000BDD518EB02085E417F1C55F10005B6E7F0
:103F10004FF480154FF000074FF000064FF00008F7
:103F2000ADE7F0BC4FF0000001F1C04101F00041ED
:103F3000BDE8008111EA0C1F0CEA131500D00CE05B
:103F400013EA0C1F00F025804FF00000F0BC81EA5E
:103F5000030101F00041BDE80081F0BC81EA0301EA
:103F6000BDE8004100F012BAF0BCBDE8004170B5F8
:103F700000F0BEF9097EFC3E00F007B881EA0301BB
:103F80004FF0000001F00041704781EA030100F0AA
:103F9000FDB9F0BC4FF000002249BDE80041704778
:103FA000FFFDFBF9F7F5F4F2F0EEEDEBE9E8E6E4FE
:103FB000E3E1E0DEDDDBDAD8D7D5D4D3D1D0CFCD85
:103FC000CCCBCAC8C7C6C5C4C2C1C0BFBEBDBCBBBE
:103FD000BAB9B8B7B6B5B4B3B2B1B0AFAEADACABB9
:103FE000AAA9A8A8A7A6A5A4A3A3A2A1A09F9F9E93
:103FF0009D9C9C9B9A999998979796959594939345
:10400000929191908F8F8E8E8D8C8C8B8B8A8989DB
:10401000888887878685858484838382828181805E
:104020000000FF070000F87F51EA030C17D41CF5CD
:10403000801F58BFBCF5801F00F10680994218BF51
:10404000704708BF9042704707D711F5801F58BFCF
:1040500013F5801F19D499427047894270471CF5A7
:10406000801F08D5BCF5801FF7D58B4218BF70475D
:1040700008BF824270474FF4001C1CEB410F38BF51
:104080001CEB430F01D28B42704770B500F030F942
:10409000922449004FF000514FF08053FFF760BE6B
:1040A0004FEA41034FEA5353A3F58063D3F11E0354
:1040B000C8BFD3F1210C0CDD4FF0004242EAC1220F
:1040C00042EA505232FA03FC8CEAE17CACEBE1703C
:1040D0007047102BC4BF0020704703F5787CBCF1FB
:1040E000FF3F04D06FF0004282EA2100704770B5B4
:1040F00000F0FEF84992248000207047F2E7B0FA01
:1041000080F310FA03F10AD0C3F11D0303F58063B5
:104110004FEA41504FEA035202EBD12170474FF072
:104120000000704751EA030C17D41CF5801F58BFDC
:10413000BCF5801F00F10680994218BF704708BF88
:104140009042704707D711F5801F58BF13F5801FA5
:1041500019D499427047894270471CF5801F08D5D1
:10416000BCF5801FF7D58B4218BF704708BF82424D
:1041700070474FF4001C1CEB410F38BF1CEB430F82
:1041800001D28B42704770B500F0B2F8922449001A
:104190004FF000514FF08053FFF7E2BDDFF848C108
:1041A00070B51CEA111E1EBF1CEA13159EEA0C0F07
:1041B00095EA0C0F00F06F8081EA030423EA4C13A8
:1041C0004EEAD47E21EA4C1141F4801143F480136D
:1041D000AE44A1FB024CA0FB0365AEF17F7E361915
:1041E00055EB0C05A1FB034C4CF10003A0FB021C9A
:1041F00016EB0C06654153F10003094218BF46F067
:10420000010613F4007F0BD14FEA03314FEA05306A
:10421000340341EA155140EA16506FF003020AE0F8
:104220004FEAC3214FEAC520F40241EA555140EA62
:1042300056506FF0020202EB2E4201EB025585EA66
:10424000CE710AD05FEA440C18BF24F0004450F14C
:10425000000041F1000120EAD47040F2FE7C62458A
:1042600000D270BDA84214BF4FF080444FF04044CC
:10427000002E08BF0024BEF1806FA8BFA1F1C0418D
:10428000BDE8704080F282804FF0000001F1C04133
:1042900001F0004170479EEA0C0F0CEA131518BF9D
:1042A00095EA0C0F06D04FF0000081EA030E0EF0E5
:1042B000004170BD00F01CF88900013E00F007B815
:1042C00000F009B84FEA430C5FEA5C5C08D081EA71
:1042D000030100F05BB84FEA410C5FEA5C5CF6D189
:1042E0004FF00000014970470000FF070000F87F11
:1042F0000EF1020E2EF0030E5EF8046B364205D46A
:10430000012A43EB030515F5001F12D8012841EBE4
:10431000010C1CF5001F0CD80ED14FEAD17C15F50D
:10432000001F0CEB4C0C0CF1020C08BF4CEBD37CC7
:1043300004E04FF0080C01E04FEAD37C0CEB4C0595
:1043400026FA05F606F00706B6F1040C06D20EEBC7
:10435000860CBDE870404CF0010C6047DFE80CF0C3
:10436000090B02024FF000414FF00000A1F50021BF
:1043700070BD19461046012851EB010418BFD4F551
:10438000001484BF002001F0004170BD0808A0F5B2
:1043900000114FEA3101704753EA010C17D41CF5A4
:1043A000801F58BFBCF5801F00F106808B4218BFEC
:1043B000704708BF8242704707D713F5801F58BF68
:1043C00011F5801F19D48B4270479B4270471CF532
:1043D000801F08D5BCF5801FF7D5994218BF7047DC
:1043E00008BF904270474FF4001C1CEB430F38BFCE
:1043F0001CEB410F01D2994270470FB40CBC03BCB7
:10440000FFF7C1BE10B591EA030F48BF83F0004328
:104410003FF5FEAB841A71EB030C07D212198CF036
:10442000004C43EB0C03001B61EB0C01DFF8A4E133
:104430004FEA1154A4EB135C1EEA430F18BF9EEA27
:10444000445F00F0B08023EA6E03524221EA045137
:10445000C3EB6E0338BF5B1EDCF1200E25D322FABE
:104460000CFE10EB0E0043FA0CFE41EB0E01CCF1FA
:10447000200E03FA0EFE10EB0E0051F10001CCF1FC
:10448000200E29D412FA0EF201EB0451BDE81040BF
:1044900058BF7047401C1CBFB2F1004F7047002846
:1044A0000CBF491C20F00100704712EB020E43EBD9
:1044B000030218BF4FF0010E4EEA4202ACF1200C8D
:1044C000DCF11E0E54D943FA0CFE10EB0E0051F134
:1044D000FF31CCF11E0ED5D50EF1010E12FA0EFEF3
:1044E000404141EB010101EB445C5FEA5C5C10D9A7
:1044F00010EBDE7001EB045138BFBEF1004FBDE898
:10450000104018BF704700280CBF491C20F0010064
:10451000704730D24FEAD42C11F5001124F4006416
:104520001BD0B1FA81F20B3AA41AA41ED2F12003D7
:10453000914030FA03F31943904001EBCC71002C09
:1045400001EB0451BDE81040A8BF704701F1C04124
:104550004FF0000001F000417047B0FA80F310FA0C
:1045600003F100D110BDE41A173C4805C90AE4E77D
:1045700001EB045110BD491001EB0451BDE810409E
:104580004FEA300002E04FF0000170474A0008BFD8
:104590000042F8D0B2F5001F28BF704701F000417B
:1045A0004FF0000070479EEA445F07D011EA5E0FAB
:1045B000BDE8104004BF002100207047BDE8104056
:1045C00070B5FFF795FE00BF40DFF63E83F0004177
:1045D000104670470000E0FF43004FEAD30C4FEA5B
:1045E0003C0C43401FBF40070CF1605113F0FE4FDD
:1045F00070471CF0006F03D100200CF000417047A1
:104600000CF0004343EA507010B540EACC0000F0D3
:1046100090FA00BF000000924FEA0001FFF7B6BE1B
:104620004FF000414FF00000A1F50021704700005D
:1046300090EA010F48BF81F0004100F1D682421A92
:104640003CBF801A89184FEAD0524FF07F4C1CEAC9
:10465000410FA2EBD15318BF9CEA026F00F03B80E0
:104660004FF0004C4CEA00204CEA012121FA03FCF7
:1046700010EB0C0C1ED202F1FF325FEA1C2040EB63
:10468000C25038BF70471CF07F0F4FEA400C18BF74
:10469000BCF17F4F38BF7047C3F12003994008BF7A
:1046A00020F00100BCF17F4F38BF7047A0F1C0403F
:1046B00000F085BA4FEA3C00000A40EBC25028BF28
:1046C0001CF0FF0F4FEA400CE6D018BFBCF17F4F43
:1046D00038BF7047EAE79CEA026F05D010EA5C0F2A
:1046E00008BF00F00040704710B500F022FA00BF8C
:1046F00064FBBE3E401058BFC0F14040491058BF57
:10470000C1F140418142EFF3008070474FF47F0CCC
:104710001CEAD0121EBF1CEAD11392EA0C0F93EAD6
:104720000C0F00F0858090EA010F48BF42F48072C0
:1047300040F4000C41F400002CF07F4120F07F4059
:1047400000B58142A2EB03020FF2081CACEB504E05
:10475000C0F100009EF800E04FEA4E0E00FB0EFC98
:1047600038BF49004FEA2C1C02F5FA020CFB0EF38D
:104770004FEACE1E4FEA112C4FEAC1210EEB635EC9
:1047800042EB22420EFB0CFC4FEA1C5300FB0311D0
:104790004FEA112C4FEA01310EFB0CFC4FEADC4CC6
:1047A00000FB0C11C14228BF09184CEB03335DF824
:1047B00004EB10EB410143EBC250B2F57C0F38BF64
:1047C000704729D512F0F00F1CBF00F1C04000F077
:1047D00000407047008182838485868788898B8C1E
:1047E0008D8E8F919293959697999A9C9D9FA0A25A
:1047F000A3A5A7A8AAACAEB0B2B3B5B7B9BCBEC0AA
:10480000C2C5C7C9CCCED1D4D7D9DCDFE2E6E9EC4A
:10481000F0F3F7FAFE0000004FEA400C0CF1807C48
:10482000BCF17E4F28BF7047B0F1C04000F0C7B95F
:1048300090EA010F0CEAD11348BF42F4807262453E
:1048400038BF634507D213F47F0F16D080EA01000A
:1048500000F00040704710B500F06BF9097EFC3E97
:1048600000F005B880EA010000F00040704780EADF
:10487000010000F0004000F0A2B912F47F0F04BF65
:104880000248704780EA010000F099B90000C07F3B
:1048900050EA010C00F113801CF5000F58BFBCF565
:1048A000000F01D48842704707D710F5000F58BF9A
:1048B00011F5000F15D488427047894270471CF5E6
:1048C000000F04D5BCF5000FF7D5814270474FF0BB
:1048D000807C1CEB400F38BF1CEB410F01D28142A2
:1048E000704710B500F025F9922449004FF00050B0
:1048F0004FF08051FFF7FEBE41000B0ED3F19E0238
:1049000008D950F400034FEA032323FA02F048BF0A
:104910004042704710B500F00CF900BF4992248066
:10492000002070476FF0004282EA200070470000CC
:10493000C10DD1F19E0206DB4FEA002343F0004394
:1049400023FA02F07047004207D54FEA4001B1F167
:10495000FE4F02D24FF00000704710B500F0E9F8AA
:1049600049922480002070476FEA200070470000C1
:1049700010F0004148BF4042B0FA80F310FA03F251
:10498000C3F19D030BD051EAC35101EB1220530632
:1049900038BF704700F1010008BF20F001007047E8
:1049A000B0FA80F310FA03F2C3F19D030AD0D905DF
:1049B00001EB1220530638BF704700F1010008BF19
:1049C00020F001007047000050EA010C00F1138054
:1049D0001CF5000F58BFBCF5000F01D4884270478A
:1049E00007D710F5000F58BF11F5000F15D48842F6
:1049F0007047894270471CF5000F04D5BCF5000FC5
:104A0000F7D5814270474FF0807C1CEB400F38BFD8
:104A10001CEB410F01D28142704710B500F089F8BC
:104A2000922449004FF000504FF08051FFF762BED2
:104A30004FF47F0C1CEAD0121EBF1CEAD11392EA7D
:104A40000C0F93EA0C0F00F0478090EA010F48BF6B
:104A500042F480724FF0004C4CEA00204CEA0121F5
:104A600002EB0302A0FB0113A2F50002002918BF0C
:104A700043F001035B0028BF4FEA330342EB2242BD
:104A80005FEA132C4CEBC2502EBFBCEB436FB2F568
:104A90007C0F70474FEA036CBCF1004F08BF20F059
:104AA0000100B2F57C0F38BF70470BD582F0FF02D2
:104AB00012F5803FC8BF704700F1C040D8BF00F07A
:104AC0000040704700F5000C5FEA4C0C48BF70478F
:104AD000B0F1C04000F073B890EA010F0CEAD113B6
:104AE00048BF42F48072624538BF634504D280EA11
:104AF000010000F00040704710B500F01AF800BF48
:104B00008900013E00F007B800F009B85FEA410CE7
:104B10005FEA1C6C08D080EA010000F050B85FEA40
:104B2000400C5FEA1C6CF6D14FF00040A0F580000D
:104B300070470EF1020E2EF0030E5EF8044B244275
:104B400004D44FEA4102B2F17F4F11D84FEA40033B
:104B5000B3F17F4F0CD80ED14FEAD07CB2F17F4F2A
:104B60000CEB4C0C0CF1020C08BF4CEBD17C04E0BC
:104B70004FF0080C01E04FEAD17C0CEB4C0324FA17
:104B800003F404F00704B4F1040C06D20EEB840C19
:104B9000BDE810404CF0010C6047DFE80CF007085E
:104BA00002024FF00040A0F5800010BD0846420010
:104BB00018BFD2F1807288BF00F0004010BDFF2105
:104BC00041EAD050C005704780F0004090EA010FE4
:104BD0007FF535AD81F0004100F007B890EA010F94
:104BE00048BF81F000413FF52AAD421A04D882F057
:104BF0000042A0EB020011444FEAD0524FF07F4C2C
:104C00001CEA410FA2EBD15318BF9CEA026F4AD0B5
:104C10004FF0004C4CEA00204CEA012121FA03FC41
:104C2000B0EB0C0C0FD412F0FE0F36D05FEA4C0044
:104C30001DD5001240EBC25038BF70471CF03F0F2B
:104C400018BF70470BE0A2F101025FEA1C2040EBA5
:104C5000C25038BF70471CF07F0F18BF7047C3F1B8
:104C60002003994014BF401E20F0010070478008C7
:104C70004FEA122308BF7047B0FA80FCA2EB0C0287
:104C8000CCF1280C60FA0CF093EA122F04BF00EB71
:104C9000C25070474FEAC3707047130A5FEADC10D6
:104CA00008BF7047F6E79CEA026F04D010EA5C0F79
:104CB00008BF0020704710B5FFF73BFF40DFF63E0E
:104CC00081F000407047FDF7B2B90CF00F03092BDB
:104CD00008BF082000F05F800A2B0BD0082B18BFFC
:104CE000704708BF1CF0400F0AD04FF000004FF093
:104CF000000170471CF0400F18BF4FF00040704794
:104D00001CF0100F08D020F0704300F07F4242EA00
:104D1000D3014FEA4370704700F0604021F07F42BA
:104D200042EA000201F07F4040EA727070474FF0A3
:104D3000FF0C4CF4E06C1CEA11531CBF9CEA030C02
:104D40009445C2BFDA4201EB02517047002B0DD0EF
:104D5000BCF1000F0FD0002A01F00041A4BF41F0C8
:104D6000E04141F07F614FF00000704701F00041E9
:104D70004FF00000704750EA01334FF09B0C18BF12
:104D80004CF0806C7EF4E4AF7047FDF7FDBDFDF79D
:104D900095BFFEF71FB91CF4801F11D01CF4E02F43
:104DA00003D06FEACC31490070474FF04050EFF329
:104DB000008222F0704242EA000282F300887047CB
:104DC0004FF00000704700000000000000000000ED
:104DD0000000000000003F40000000000000000054
:104DE0003000400030004000000009000BC03D00D2
:104DF0000BC03D00090018C024407FE022403180F4
:104E00000000180024C01B000D8032400180038088
:104E10001C4027401C80074000401000600000003C
:104E20000000000000000000000000001F80204083
:104E300040200000402020401F80000000000900AA
:104E400006001F80060009000000040004003F80E7
:104E500004000400000000100060000000000000DA
:104E6000000004000400040004000400000000002E
:104E700000400000000000000000002001C006000B
:104E80003800400000001F802040204020401F804C
:104E90000000000010403FC000400000000018C0AB
:104EA000214022402440184000001080204024402F
:104EB00024401B80000002000D0011003FC0014093
:104EC00000003C80244024402440238000001F80B8
:104ED000244024403440038000003000200027C0DC
:104EE0003800200000001B802440244024401B8008
:104EF00000001C0022C0224022401F800000000051
:104F000000000840000000000000000000000460F5
:104F1000000000000000000004000A0011002080D2
:104F200040400900090009000900090000000000D4
:104F30004040208011000A00040018002000234097
:104F40002400180000001F802040274029401F40F7
:104F50000000004007C039000F0001C000402040A1
:104F60003FC0244024401B8000001F802040204080
:104F700020403080000020403FC0204020401F8063
:104F8000000020403FC024402E4030C000002040A0
:104F90003FC024402E00300000000F001080204051
:104FA00022403380020020403FC0040004003FC084
:104FB0002040204020403FC02040204000000060B2
:104FC000202020203FC02000200020403FC024405F
:104FD0000B0030C0204020403FC020400040004037
:104FE00000C03FC03C0003C03C003FC00000204068
:104FF0003FC00C4023003FC020001F8020402040C5
:1050000020401F80000020403FC0244024001800A2
:1050100000001F802140214020E01FA00000204010
:105020003FC02440260019C0004018C0244024403E
:10503000224031800000300020403FC0204030003E
:10504000000020003F80004000403F802000200002
:105050003E0001C0070038002000380007C03C00B7
:1050600007C038000000204039C0060039C0204089
:1050700000002000384007C03840200000003040C9
:1050800021C02640384020C00000000000007FE022
:10509000402040200000000070000C000380004011
:1050A00000000000402040207FE0000000000000E1
:1050B0002000400020000000000000100010001040
:1050C0000010001000100000000040000000000070
:1050D0000000000002800540054003C000402000A1
:1050E0003FC00440044003800000000003800440EF
:1050F00004400640000000000380044024403FC0FC
:10510000004000000380054005400340000000000F
:1051100004401FC0244024402000000002E005504D
:1051200005500650042020403FC00440040003C046
:1051300000400000044027C00040000000000010B4
:105140000010041027E00000000020403FC0014094
:10515000070004C00440204020403FC00040004001
:10516000000007C0040007C0040003C000000440A2
:1051700007C00440040003C0004000000380044056
:10518000044003800000041007F004500440038032
:105190000000000003800440045007F000100440A9
:1051A00007C0024004000400000000000640054063
:1051B000054004C00000000004001F8004400040BF
:1051C0000000040007800040044007C000400400C5
:1051D000070004C0018006000400060001C00700AB
:1051E00001C006000000044006C0010006C00440E3
:1051F00000000410071004E0018006000400000015
:10520000044005C006400440000000000000040007
:105210007BE040200000000000000000FFF00000E4
:105220000000000040207BE004000000000040007F
:10523000800040002000200040000000000000002E
:10524000000000000000000000000000000000005E
:105250001FCC000C0000000000000000080030001F
:1052600060000800300060000000022003FC1E20E7
:10527000022003FC1E200220000000000E18110472
:105280003FFF10840C78000000000F0010840F38DE
:1052900000C0077818840078000000780F8410C4DC
:1052A00011240E9800E400840008080068007000D3
:1052B00000000000000000000000000000000000EE
:1052C00007E01818200440020000000040022004FB
:1052D000181807E0000000000000024002400180B2
:1052E0000FF001800240024000000080008000803A
:1052F0000FF800800080008000000001000D000E0B
:10530000000000000000000000000000008000809D
:10531000008000800080008000800000000C000CF5
:10532000000000000000000000000000000600185F
:1053300000600180060018002000000007F0080847
:1053400010041004080807F0000000000804080416
:105350001FFC000400040000000000000E0C1014EC
:105360001024104411840E0C000000000C181004CE
:105370001104110412880C700000000000E00320EA
:10538000042408241FFC0024000000001F9810843F
:1053900011041104108810700000000007F0088844
:1053A0001104110418880070000000001C00100097
:1053B00010FC13001C001000000000000E38114407
:1053C0001084108411440E38000000000700088C7F
:1053D00010441044088807F000000000000000009E
:1053E000030C030C0000000000000000000000019E
:1053F00001060000000000000000000000800140E5
:1054000002200410080810040000022002200220DC
:1054100002200220022002200000000010040808E0
:105420000410022001400080000000000E00120065
:10543000100C106C10800F00000003E00C1813E437
:10544000142417C4082807D000000004003C03C43B
:105450001C40074000E4001C000410041FFC110461
:10546000110411040E880070000003E00C181004F1
:105470001004100410081C10000010041FFC10047D
:1054800010041004080807F0000010041FFC1104A9
:10549000110417C410040818000010041FFC1104A4
:1054A000110017C010000800000003E00C181004E1
:1054B000100410441C780040000010041FFC1084ED
:1054C0000080008010841FFC1004000010041004F1
:1054D0001FFC100410040000000000030001100174
:1054E00010011FFE10001000000010041FFC11042A
:1054F00003801464181C1004000010041FFC100426
:10550000000400040004000C000010041FFC1F0035
:1055100000FC1F001FFC1004000010041FFC0C0402
:10552000030000E010181FFC100007F0080810042A
:1055300010041004080807F0000010041FFC108479
:105540001080108010800F00000007F00818102451
:105550001024101C080A07F2000010041FFC11049C
:10556000110011C011300E0C000400000E1C1104BB
:105570001084108410441C3800001800100010041F
:105580001FFC100410001800000010001FF8100489
:105590000004000410041FF8100010001E0011E0A9
:1055A000001C007013801C0010001FC0103C00E0A5
:1055B0001F0000E0103C1FC000001004180C16343F
:1055C00001C001C01634180C100410001C00130494
:1055D00000FC13041C00100000000804101C1064E0
:1055E000108413041C0410180000000000000000C8
:1055F0007FFE4002400240020000000030000C002C
:1056000003800060001C0003000000004002400214
:1056100040027FFE000000000000000000002000AB
:105620004000400040002000000000010001000197
:1056300000010001000100010001000040004000E5
:10564000200000000000000000000000009801247D
:1056500001440144014400FC000410001FFC0088C8
:105660000104010400880070000000000070008840
:10567000010401040104008800000000007000889B
:105680000104010411081FFC0004000000F801449B
:1056900001440144014400C8000000000104010469
:1056A0000FFC1104110411001800000000D601299C
:1056B0000129012901C90106000010041FFC008412
:1056C00001000100010400FC0004000001041904B1
:1056D00019FC0004000400000000000000030001A9
:1056E0000101190119FE0000000010041FFC002434
:1056F000004001B4010C010400000000100410047B
:105700001FFC0004000400000000010401FC01046F
:10571000010001FC0104010000FC010401FC008403
:1057200001000100010400FC0004000000F8010475
:1057300001040104010400F80000010101FF0085DB
:10574000010401040088007000000000007000885F
:1057500001040104010501FF00010104010401FC31
:1057600000840104010001800000000000CC01243D
:10577000012401240124019800000000010001001F
:1057800007F80104010400000000010001F8000412
:1057900000040004010801FC000401000180017004
:1057A000000C001001600180010001F0010C0030CC
:1057B00001C00030010C01F0010000000104018C67
:1057C00000740170018C010400000101018101716C
:1057D000000E001801600180010000000184010C2E
:1057E000013401440184010C0000000000000000AD
:1057F000000001003EFC40024002000000000000EA
:105800000000FFFF00000000000000004002400216
:105810003EFC01000000000000000000600080006D
:1058200080004000400020002000000002400000F6
:10583000000000A00000000005400000000000C8BB
:10584000000000000C4000000000409C0000000030
:10585000194000000020BCBE0000000034400000E1
:10586000BFC91B8E00000004B5400000504BCFD0D4
:105870006607E2CF010000006C4100003E8251AAA1
:10588000DFEEA73401000000D9420000DCB5A0E241
:105890003A301F97FFFFFFFFB4450000FD25A0C869
:1058A000E9A3C14FFFFFFFFFFF3F000000000080A2
:1058B00000000000FF3F000000000080000000002A
:1058C000145A000800000020A4000000280100086D
:1058D000B85A0008A4000020440B0000440100084E
:1058E000000000000000F07F1C00000043000000EA
:1058F000F8FFFFFF0C0000000E0000000F0000008A
:105900002E0000001001000043000000F8FFFFFF20
:1059100000404040404040404040414141414140C2
:105920004040404040404040404040404040404077
:105930004005020202020202020202020202020206
:10594000022020202020202020202002020202020B
:105950000202909090909090101010101010101063
:10596000101010101010101010101010020202026F
:1059700002028888888888880808080808080808B3
:1059800008080808080808080808080802020202AF
:1059900040000000000000000000000000000000C7
:1059A00000000000000000000000000000000000F7
:1059B00000000000000000000000000000000000E7
:1059C00000000000000000000000000000000000D7
:1059D00000000000000000000000000000000000C7
:1059E00000000000000000000000000000000000B7
:1059F00000000000000000000000000000000000A7
:105A00000000000000000000000000000000000096
:105A1000000000000100000100000000102700004D
:105A200000000000000000000000000000004842EC
:105A30000000A04200002041000096430000803F8B
:105A40000000803F000020410000803F0000204116
:105A50000000000000000000000000000000000046
:105A600000000000FFFFFFFF00000000000000003A
:105A70000000000000000000000000000000000026
:105A80000000000000000000000000000000000016
:105A90000000000000000000000000000000000006
:105AA00000000000000000000000000000000000F6
:085AB0000000000000000000EE
:04000005080000ED02
:00000001FF
